:020000040800F2
:1000000048080020B9030008190400081904000872
:100010001904000819040008190400080000000071
:1000200000000000000000000000000019040008AB
:100030001904000800000000190400081904000851
:10004000190400081904000819040008190400081C
:10005000190400081904000819040008190400080C
:1000600019040008190400081904000819040008FC
:1000700019040008190400081904000819040008EC
:1000800019040008190400081904000819040008DC
:1000900019040008190400081904000819040008CC
:1000A00019040008190400081904000819040008BC
:1000B00019040008190400081904000819040008AC
:1000C000190400081904000819040008190400089C
:1000D00019040008810900089106000819040008A5
:1000E00019040008190400081904000800000000A1
:1000F0000000000000000000000000000000000000
:1001000000000000000000005FF808F180B485B036
:1001100000AF786039600023FB817B681B88FB811E
:100120007B682E4A934213D07B682D4A93420FD0AE
:100130007B68B3F1804F0BD07B682A4A934207D08B
:100140007B68294A934203D07B68284A934208D1AE
:10015000FB8923F07003FB813B685A88FB891343BA
:10016000FB817B68224A93420CD07B68214A9342F0
:1001700008D0FB8923F44073FB813B68DA88FB8954
:100180001343FB817B68FA891A803B689A887B68F5
:100190009A853B681A887B681A857B680F4A934268
:1001A0000FD07B680E4A93420BD07B68124A934271
:1001B00007D07B68114A934203D07B68104A934270
:1001C00004D13B681B7A9AB27B681A867B6801224D
:1001D0009A8200BF1437BD4680BC7047002C014096
:1001E000003401400004004000080040000C0040C2
:1001F0000010004000140040004001400044014055
:100200000048014080B483B000AF78600B46FB70BB
:10021000FB78002B08D07B681B889BB243F001035E
:100220009AB27B681A8007E07B681B889BB223F038
:1002300001039AB27B681A8000BF0C37BD4680BCB0
:100240007047000080B500AF154A154B1B6843F09E
:10025000010313601249124B5A68124B13404B6052
:100260000F4A0F4B1B6823F0847323F48033136011
:100270000B4A0B4B1B6823F480231360084A084B7E
:100280005B6823F4FE035360054B4FF41F029A6032
:1002900000F00CF8044B4FF000629A6000BF80BD84
:1002A000001002400000FFF800ED00E080B500AF54
:1002B00000F002F800BF80BD80B483B000AF00231F
:1002C0007B6000233B603A4A394B1B6843F4803320
:1002D0001360374B1B6803F400333B607B680133CA
:1002E0007B603B68002B03D17B68B3F5A06FF0D136
:1002F0002F4B1B6803F40033002B02D001233B601B
:1003000001E000233B603B68012B4BD1294A294B7C
:100310001B6843F010031360264A264B1B6823F02A
:1003200003031360234A234B1B6843F0020313604B
:100330001F4A1F4B5B6853601D4A1D4B5B6853602F
:100340001B4A1B4B5B6843F480635360184A184B8D
:100350005B6823F47C135360154A154B5B6843F4C8
:10036000E8135360124A124B1B6843F0807313600A
:1003700000BF0F4B1B6803F00073002BF9D00C4A31
:100380000B4B5B6823F003035360094A084B5B681F
:1003900043F00203536000BF054B5B6803F00C039E
:1003A000082BF9D100BF0C37BD4680BC704700BF99
:1003B000001002400020024080B582B000AF114B17
:1003C0007B60114B3B6007E03B681A1D3A607A681E
:1003D000111D796012681A603B680C4A9342F3D38E
:1003E0000B480C494FF000028842B8BF40F8042B7C
:1003F000FADBFFF727FF00F0A3FD00BF0837BD467B
:1004000080BD00BFD4140008000000202800002098
:10041000280000204804002080B400AFFEE780B42C
:1004200089B000AF786039600023FB6100233B6135
:100430000023BB610023FB6000237B610023BB60C2
:100440003B68DB7803F00F03FB613B68DB7803F06C
:100450001003002B05D03B689B781A46FB691343B9
:10046000FB613B681B88DBB2002B44D07B681B68B8
:100470007B610023BB6138E00122BB6902FA03F310
:10048000FB603B681B881A46FB6813403B613A6976
:10049000FB689A4226D1BB699B00FB600F22FB6878
:1004A00002FA03F3BB60BB68DB437A6913407B61EC
:1004B000FA69FB6802FA03F37A6913437B613B68CC
:1004C000DB78282B05D10122BB699A407B685A61F1
:1004D00008E03B68DB78482B04D10122BB699A40D5
:1004E0007B681A61BB690133BB61BB69072BC3D948
:1004F0007B687A691A603B681B88FF2B46D97B684A
:100500005B687B610023BB613AE0BB690833012271
:1005100002FA03F3FB603B681B881A46FB68134032
:100520003B613A69FB689A4227D1BB699B00FB603B
:100530000F22FB6802FA03F3BB60BB68DB437A69F6
:1005400013407B61FA69FB6802FA03F37A6913438B
:100550007B613B68DB78282B05D1BB69083301221E
:100560009A407B685A613B68DB78482B05D1BB69B0
:10057000083301229A407B681A61BB690133BB6171
:10058000BB69072BC1D97B687A695A6000BF2437E1
:10059000BD4680BC704780B483B000AF78600B4626
:1005A0007B8013467B707B78002B03D07A887B6836
:1005B0001A6102E07A887B685A6100BF0C37BD4639
:1005C00080BC704780B485B000AF78607B6803F072
:1005D0000703FB600C4BDB68BB60BA684FF6FF0398
:1005E0001340BB60FB681A02BB68134343F0BF6350
:1005F00043F40033BB60044ABB68D36000BF1437C8
:10060000BD4680BC704700BF00ED00E080B483B001
:1006100000AF0346FB71084997F907305B09FA7987
:1006200002F01F02012000FA02F241F8232000BF6D
:100630000C37BD4680BC704700E100E080B483B059
:1006400000AF03463960FB7197F90730002B0BDAD6
:100650000D49FB7903F00F03043B3A68D2B2120153
:10066000D2B20B441A7609E0084997F907303A6884
:10067000D2B21201D2B20B4483F8002300BF0C3770
:10068000BD4680BC704700BF00ED00E000E100E027
:1006900080B483B000AF274B1B88FB80254B9B8821
:1006A0009BB27B71FB8803F02003002B13D0224BFD
:1006B0001B889BB201339BB2DBB27B801F4B1B8834
:1006C0009BB27A889A4206D07B881D497A79CA54AF
:1006D000194A7B881380FB8803F08003002B23D00A
:1006E000184B1B889AB2184B1B889BB29A4213D0A6
:1006F000154B1B889BB201339BB2DBB29AB2124BF3
:100700001A800C4B104A128892B211460F4A525C62
:10071000D2B292B29A8007E0064A064B9B899BB2FE
:1007200023F080039BB2938100BF0C37BD4680BC91
:10073000704700BF0044004036010020380100200F
:1007400040020020340100203C0100204003002032
:1007500080B485B000AF0346FB71124B1B889BB27F
:1007600001339BB2DBB2FB810F4B1B889BB2FA8932
:100770009A4210D0FB890D49FA79CA54094AFB897B
:1007800013800B4A0A4B9B899BB243F080039BB2B8
:100790009381012300E0002318461437BD4680BC36
:1007A000704700BF340100203C01002040030020BE
:1007B0000044004080B400AF074B1B889AB2074B3F
:1007C0001B889BB29A4201D1002300E00123184606
:1007D000BD4680BC704700BF3601002038010020B4
:1007E00080B400AF094B1B889BB201339BB2DBB2D4
:1007F0009AB2064B1A80054B1B889BB21A46044BD3
:100800009B5CDBB21846BD4680BC704738010020B7
:100810004002002080B582B000AF0346FB71FB7937
:10082000012B0BD140F225510C4800F037FE01227C
:1008300040F22551094800F0EAFD0AE0002240F2AA
:100840002551064800F0E3FD40F22551034800F031
:1008500025FE00BF0837BD4680BD00BF00440040F4
:1008600080B588B000AF01214FF4003000F098FC53
:100870000121052000F076FC0423BB831823FB77BD
:100880000323BB7707F11C0319463148FFF7C7FD67
:100890000823BB834823FB770323BB7707F11C03A3
:1008A00019462B48FFF7BBFD07F11403184600F06B
:1008B0007AFD07F114031946264800F049FD264B3E
:1008C0007B6000233B8100237B810023BB810C23C1
:1008D000FB8100233B823B1D19461E4800F07EFC35
:1008E00006212620FFF7AAFE2620FFF78FFE002212
:1008F00040F22771174800F08AFD40F22771154831
:1009000000F0CCFD40F22661124800F0C7FD002146
:10091000124B0A461A80124B0A461A80002240F2F5
:1009200025510C4800F073FD40F22551094800F0B4
:10093000B5FD00210B4B0A461A800B4B0A461A8064
:100940000121044800F044FD00BF2037BD4680BDB2
:100950000008014000440040801A06003C010020CD
:1009600034010020380100203601002080B500AF9E
:10097000FFF776FF0120FFF74DFF00BF80BD0000AD
:1009800080B483B000AF274B1B88FB80254B9B882E
:100990009BB27B71FB8803F02003002B13D0224B0A
:1009A0001B889BB201339BB2DBB27B801F4B1B8841
:1009B0009BB27A889A4206D07B881D497A79CA54BC
:1009C000194A7B881380FB8803F08003002B23D017
:1009D000184B1B889AB2184B1B889BB29A4213D0B3
:1009E000154B1B889BB201339BB2DBB29AB2124B00
:1009F0001A800C4B104A128892B211460F4A525C70
:100A0000D2B292B29A8007E0064A064B9B899BB20B
:100A100023F080039BB2938100BF0C37BD4680BC9E
:100A2000704700BF00380140420400203000002021
:100A3000400100203A01002046040020340000203C
:100A400080B485B000AF0346FB71124B1B889BB28C
:100A500001339BB2DBB2FB810F4B1B889BB2FA893F
:100A60009A4210D0FB890D49FA79CA54094AFB8988
:100A700013800B4A0A4B9B899BB243F080039BB2C5
:100A80009381012300E0002318461437BD4680BC43
:100A9000704700BF3A0100204604002034000020C7
:100AA0000038014080B400AF074B1B889AB2074B57
:100AB0001B889BB29A4201D1002300E00123184613
:100AC000BD4680BC704700BF4204002030000020BB
:100AD00080B400AF094B1B889BB201339BB2DBB2E1
:100AE0009AB2064B1A80054B1B889BB21A46044BE0
:100AF0009B5CDBB21846BD4680BC704730000020CE
:100B00004001002080B588B000AF012144F205000B
:100B100000F028FB4FF40073BB831823FB770323FB
:100B2000BB7707F11C0319463248FFF778FC4FF4F6
:100B30008063BB834823FB770323BB7707F11C0348
:100B400019462C48FFF76BFC07F11403184600F018
:100B50002AFC07F114031946274800F0F9FB4FF46B
:100B600061437B6000233B8100237B810023BB81A9
:100B70000C23FB8100233B823B1D19461E4800F0DD
:100B80002DFB07212520FFF759FD2520FFF73EFD0E
:100B9000002240F22771184800F039FC40F227711A
:100BA000154800F07BFC40F22661134800F076FC0B
:100BB0000021124B0A461A80114B0A461A8040F255
:100BC00025510D4800F06AFC012240F225510A48E7
:100BD00000F01DFC00210B4B0A461A800A4B0A4606
:100BE0001A800121044800F0F3FB00BF2037BD4606
:100BF00080BD00BF000801400038014046040020CD
:100C00003A010020300000204204002080B584B06A
:100C100000AF0121012000F0C3FA00237B810023F3
:100C2000FB804FF6FF733B810C4B1B680C4AA2FB09
:100C300003239B0C9BB2013B9BB2BB803B1D19461F
:100C40004FF08040FFF762FA01214FF08040FFF73C
:100C5000D9FA00BF1037BD4680BD00BF000000209C
:100C600083DE1B4380B400AF4FF080439B8C9BB26C
:100C70001846BD4680BC704780B582B000AF0121E8
:100C8000042000F06FFA8023BB801023FB71032344
:100C9000BB713B1D19460348FFF7C1FB00BF083776
:100CA000BD4680BD0008014080B582B000AF012183
:100CB000042000F057FA4023BB801023FB7103236C
:100CC000BB713B1D19460348FFF7A9FB00BF08375E
:100CD000BD4680BD0008014080B582B000AF03462C
:100CE000FB71FB79012B03D10020FFF793FD02E09C
:100CF0000120FFF78FFD00BF0837BD4680BD000013
:100D000080B586B000AF8A4B1B78062B00F20C81B1
:100D100001A252F823F000BF350D0008650D000850
:100D2000B70D0008230E0008850E0008A30E00086A
:100D3000ED0E0008FFF73EFD0346002B00F0E980B2
:100D4000FFF74EFD0346BB75FFF78CFF03461A46BF
:100D5000784B1A80BB7D4F2B40F0DB80744B012217
:100D60001A70D6E0FFF726FD0346002B13D0FFF7DD
:100D700037FD03467B75FFF775FF03461A466D4B3B
:100D80001A807B7D572B03D1694B02221A7002E037
:100D9000674B00221A70FFF765FF03461A46654B42
:100DA0001B88D31A7B827B8A322B40F2B480604B43
:100DB00000221A70AFE0FFF7FDFC0346002B21D0A4
:100DC000FFF70EFD03461A465B4B1A70FFF74AFF0A
:100DD00003461A46574B1A80584B00221A70564B3E
:100DE0001B78102B03D9524B00221A700AE0524B89
:100DF0001B78002B03D04E4B03221A7002E04C4BA1
:100E000004221A70FFF72EFF03461A46494B1B882F
:100E1000D31A3B823B8A322B7FD9454B00221A7072
:100E20007BE0FFF7C7FC0346002B1CD0FFF7D8FC84
:100E30000346FB73FFF716FF03461A463D4B1A8025
:100E4000FB7B1846FFF7FCFD3C4B1B780133DAB205
:100E50003A4B1A70394B1A78374B1B789A4202D3A7
:100E6000334B04221A70FFF7FDFE03461A46314B3E
:100E70001B88D31ABB81BB89322B50D92C4B002243
:100E80001A704CE0FFF7EEFE03461A46294B1B880A
:100E9000D31A7B817B89322B43D9254B05221A70CB
:100EA0003FE00120FFF718FFFFF7DCFE03461A467C
:100EB000204B1A800023FB750FE0FFF7F3FD03467C
:100EC000002B0ED0FFF704FE03467B727B7A184698
:100ED000FFF73EFCFB7D0133FB75FB7D0F2BECD94F
:100EE00000E000BF124B06221A701DE0FFF7BAFEA9
:100EF00003461A460F4B1B88D31AFB80FB88B3F5B9
:100F0000FA7F10D90020FFF7E7FE094B00221A7084
:100F100009E000BF08E000BF06E000BF04E000BF3A
:100F200002E000BF00E000BF00BF1837BD4680BD33
:100F30002800002044040020290000202C0000206C
:100F400080B582B000AF0020FFF73CFBFFF70EFD3D
:100F5000FFF7D8FDFFF75AFE0020FFF7BDFEFFF7B1
:100F60008BFEFFF7A1FE012280212348FFF713FB30
:100F7000002240212048FFF70EFBFFF773FE0346D7
:100F80001A461E4B1A801E4B00221A80FFF7B8FE2D
:100F9000FFF768FE03461A46184B1B88D31AFB80DE
:100FA000FB88B3F57A7FF1D9144B1B8803F57A736C
:100FB0009AB2124B1A80124B1B8801339AB2104B13
:100FC0001A800F4B1B88B3F5FA7F02D30C4B00221B
:100FD0001A800B4B1B88002BD8D1074BDB683B607A
:100FE00005493B681B0403F480023B68DB4303F0C4
:100FF000400313430B61C9E7000801402E000020A5
:101000004004002080B487B000AF786000237B618B
:1010100000233B610023FB600023BB604C4B5B68FB
:1010200003F00C037B617B69042B07D0082B09D0EC
:10103000002B33D17B68474A1A6033E07B68454A0E
:101040001A602FE0424B5B6803F470133B61404B26
:101050005B6803F48033FB603B699B0C02333B61AC
:10106000FB68002B06D13B693B4A02FB03F27B681D
:101070001A6017E0364B5B6803F40033002B06D090
:101080003B69354A02FB03F27B681A600AE03B6960
:10109000304A02FB03F27B681A6003E07B682D4A4A
:1010A0001A6000BF2A4B5B6803F0F0037B617B6929
:1010B0001B097B61294A7B6913441B78DBB2BB6047
:1010C0007B681A68BB68DA407B685A60204B5B68B3
:1010D00003F4E0637B617B691B0A7B611F4A7B69C8
:1010E00013441B78DBB2BB607B685A68BB68DA408C
:1010F0007B689A60164B5B6803F460537B617B6985
:10110000DB0A7B61154A7B6913441B78DBB2BB6049
:101110007B685A68BB68DA407B68DA600C4B5B68B6
:1011200003F440437B617B699B0B7B610C4A7B69C9
:1011300013441B78DBB2BB607B68DA68BB68B2FB28
:10114000F3F27B681A6100BF1C37BD4680BC704754
:101150000010024000127A0000093D001400002037
:101160002400002080B483B000AF78600B46FB7091
:10117000FB78002B06D00949084B9A697B6813431A
:101180008B6106E00549054B9A697B68DB43134098
:101190008B6100BF0C37BD4680BC70470010024019
:1011A00080B483B000AF78600B46FB70FB78002BF7
:1011B00006D00949084BDA697B681343CB6106E026
:1011C0000549054BDA697B68DB431340CB6100BFFF
:1011D0000C37BD4680BC70470010024080B58CB013
:1011E00000AF786039600023FB620023BB620023FC
:1011F0007B6200233B620023FB617B68FB617B68B1
:101200001B8A9BB2FB62FA6A4CF6FF731340FB62C7
:101210003B68DB881A46FB6A1343FB62FB6A9AB29F
:101220007B681A827B689B899BB2FB62FA6A4EF6E6
:10123000F3131340FB623B689A883B681B89134396
:101240009AB23B685B8913439BB21A46FB6A13430D
:10125000FB62FB6A9AB27B689A817B689B8A9BB22D
:10126000FB62FA6A4FF6FF431340FB623B689B89BF
:101270001A46FB6A1343FB62FB6A9AB27B689A8246
:1012800007F108031846FFF7BDFEFB692E4A93429B
:1012900002D17B69BB6201E03B69BB627B689B89D1
:1012A0009BB21BB2002B0CDABA6A13469B001344A4
:1012B0009A001A443B681B685B00B2FBF3F37B6245
:1012C0000BE0BA6A13469B0013449A001A443B6829
:1012D0001B689B00B2FBF3F37B627B6A1B4AA2FB99
:1012E00003235B091B01FB62FB6A1B09642202FBEF
:1012F00003F37A6AD31A3B627B689B899BB21BB269
:10130000002B0CDA3B6ADB003233104AA2FB0323CA
:101310005B0903F00703FA6A1343FB620BE03B6AC5
:101320001B013233094AA2FB03235B0903F00F03BD
:10133000FA6A1343FB62FB6A9AB27B681A8100BFA8
:101340003037BD4680BD00BF003801401F85EB51DE
:1013500080B485B000AF786039600023FB607B68A3
:101360001B8A9BB2FB60FA684FF2FF031340FB60DD
:101370003B681A883B685B8813439AB23B689B883A
:1013800013439AB23B68DB8813439BB21A46FB684F
:101390001343FB60FB689AB27B681A8200BF143764
:1013A000BD4680BC704780B483B000AF78607B6876
:1013B00000221A807B6800225A807B6800229A8073
:1013C0007B680022DA8000BF0C37BD4680BC7047C6
:1013D00080B483B000AF78600B46FB70FB78002BC5
:1013E00008D07B689B899BB243F400539AB27B6818
:1013F0009A8107E07B689B899BB223F400539AB2E1
:101400007B689A8100BF0C37BD4680BC704780B4B2
:1014100087B000AF78600B467B8013467B7000235B
:101420003B610023FB600023BB6000237B617B6882
:101430007B617B88DBB25B09DBB23B617B8803F0BD
:101440001F03FB600122FB6802FA03F3BB603B69E8
:10145000012B03D17B690C337B6109E03B69022BD3
:1014600003D17B6910337B6102E07B6914337B61BC
:101470007B78002B06D07B697A691168BA680A43C9
:101480001A6006E07B697A691168BA68D2430A403B
:101490001A6000BF1C37BD4680BC704780B485B061
:1014A00000AF78600B467B800023FB810023BB816B
:1014B0007B881B0AFB81FB89012202FA03F3BB81B3
:1014C000BB89DB439AB27B681A8000BF1437BD46E4
:0414D00080BC704725
:1014D40000A24A040000000000000000010203040E
:1014E40006070809000000000102030401020304C6
:0814F4000607080902040608BE
:0400000508000000EF
:00000001FF
